:020000040000FA
:100000000C945E000C943D040C9416040C94860031
:100010000C9486000C9486000C9486000C94860048
:100020000C9486000C9486000C9486000C94860038
:100030000C9486000C94BC040C9486000C948600EE
:100040000C94CC030C9486000C948A040C946404E5
:100050000C9486000C9486000C9486000C94860008
:100060000C9486000C9486000000000024002700F9
:100070002A0000000000250028002B0004040404CE
:100080000404040402020202020203030303030342
:10009000010204081020408001020408102001021F
:1000A00004081020000000080002010000030407FB
:1000B0000000000000000000E3041B0A11241FBE22
:1000C000CFEFD8E0DEBFCDBF25E0A8E2B3E001C0AE
:1000D0001D92AF30B207E1F713E0A0E0B1E0EAE82B
:1000E000F9E102C005900D92A832B107D9F710E0EE
:1000F000CDE5D0E004C02197FE010E94B70ACC35BF
:10010000D107C9F70E9449060C94B80C0C94000062
:1001100090E0FC01EC55FF4F2491FC01E057FF4FAC
:100120003491FC01E458FF4FE491EE23C9F02223FF
:1001300039F0233001F1A8F4213019F1223029F1EE
:10014000F0E0EE0FFF1FEE58FF4FA591B4918FB76F
:10015000F894EC91611126C030953E233C938FBFFB
:1001600008952730A9F02830C9F0243049F780914C
:1001700080008F7D03C0809180008F778093800006
:10018000DFCF84B58F7784BDDBCF84B58F7DFBCF88
:100190008091B0008F778093B000D2CF8091B00073
:1001A0008F7DF9CF3E2BDACFCF93DF9390E0FC0128
:1001B000E057FF4F249184589F4FFC01849188237E
:1001C000D1F090E0880F991FFC01E859FF4FA591ED
:1001D000B491FC01EE58FF4FC591D491623071F497
:1001E0009FB7F8943C91822F809583238C93E8816C
:1001F0002E2B28839FBFDF91CF9108958FB7F8945E
:10020000EC912E2B2C938FBFF6CF60E087E00C94FF
:10021000880060E088E00C94880080912A0388239D
:1002200031F010922A0360E087E00E9488008091FC
:100230002C03882331F010922C0360E088E00E94A8
:10024000880080E180938100089508950895AF9219
:10025000BF92CF92DF92EF92FF920F931F93CF93B3
:10026000DF936C017B018B01040F151FEB015E0115
:10027000AE18BF08C017D10759F06991D601ED91AA
:10028000FC910190F081E02DC6010995892B79F749
:10029000C501DF91CF911F910F91FF90EF90DF90FB
:1002A000CF90BF90AF900895FC01538D448D252FC2
:1002B00030E0842F90E0821B930B541710F0CF9600
:1002C000089501970895FC01918D828D981761F032
:1002D000A28DAE0FBF2FB11D5D968C91928D9F5F49
:1002E0009F73928F90E008958FEF9FEF08952FB73F
:1002F000F8948091330390913403A0913503B09129
:1003000036032FBF80933F0390934003A093410394
:10031000B093420387E393E00E94630197FF26C0F6
:100320002FB7F8948091330390913403A091350353
:10033000B09136032FBF40913F035091400360912D
:10034000410370914203841B950BA60BB70B4091A0
:100350003B0350913C0360913D0370913E03841731
:100360009507A607B707B0F28FEF9FEF0895FC013E
:10037000918D828D981731F0828DE80FF11D858D5A
:1003800090E008958FEF9FEF0895FC01918D228DED
:10039000892F90E0805C9F4F821B91098F73992772
:1003A000089587E393E00E94C50121E0892B09F4B9
:1003B00020E0822F089580E090E0892B29F00E94B0
:1003C000D10181110C9400000895FC01A48DA80FA7
:1003D000B92FB11DA35ABF4F2C91848D90E0019687
:1003E0008F739927848FA689B7892C93A089B189A7
:1003F0008C91837080648C93938D848D981306C048
:100400000288F389E02D80818F7D80830895EF92AB
:10041000FF920F931F93CF93DF93EC0181E0888FBE
:100420009B8D8C8D98131AC0E889F989808185FF8E
:1004300015C09FB7F894EE89FF896083E889F98930
:1004400080818370806480839FBF81E090E0DF9132
:10045000CF911F910F91FF90EF900895F62E0B8D85
:1004600010E00F5F1F4F0F731127E02E8C8D8E1140
:100470000CC00FB607FCFACFE889F989808185FFA7
:10048000F5CFCE010E94E501F1CFEB8DEC0FFD2FF2
:10049000F11DE35AFF4FF0829FB7F8940B8FEA8962
:1004A000FB8980818062CFCFCF93DF93EC01888D71
:1004B0008823B9F0AA89BB89E889F9898C9185FDDF
:1004C00003C0808186FD0DC00FB607FCF7CF8C916D
:1004D00085FFF2CF808185FFEDCFCE010E94E5013F
:1004E000E9CFDF91CF910895FC0101900020E9F759
:1004F0003197AF01481B590BBC0187E393E00C9483
:100500002701CF93DF930E947402EC018DE191E00B
:100510000E9474028C0F9D1FDF91CF910895FC0102
:1005200024813581FB014481558124173507E1F48D
:10053000FC0180819181FB01608171810097D1F084
:1005400061157105A1F4232BC1F0FC01808190E0BD
:1005500008C0232B91F0FB01808190E0919581955B
:10056000910921E0892B09F020E0822F08950E9453
:10057000A80CF7CF6115710561F721E0F6CF0F9355
:100580001F93CF93DF938C01EB01FC01808191815C
:100590000097E1F06881798161157105A9F04281C8
:1005A00053812C813D814217530770F00E94B10C9A
:1005B0008C819D81F801958384831D821C82DF914B
:1005C000CF911F910F9108950E94590B88819981B5
:1005D000F801918380838A819B81938382838C81BC
:1005E0009D8195838483198218821B821A82E5CFAC
:1005F000FC0180819181009711F00C94590B0895B2
:100600000F931F93CF93DF93EC018881998100971B
:1006100059F02A813B812617370730F081E0DF91BE
:10062000CF911F910F9108958B016F5F7F4F0E94B3
:10063000E20B009759F0998388831B830A832C81EE
:100640003D81232B59F7FC011082E8CF80E0E7CFF2
:10065000EF92FF920F931F93CF93DF93EC017B01F7
:100660008A01BA010E94000328813981811114C0D6
:100670002115310519F0C9010E94590B1982188200
:100680001D821C821B821A82CE01DF91CF911F91A5
:100690000F91FF90EF9008951D830C83B701C9015E
:1006A0000E94B10CF1CFFB0101900020E9F73197D6
:1006B000AF01461B570B0C942803CF93DF93EC013B
:1006C000FB018617970749F06081718161157105FB
:1006D00041F0448155810E942803CE01DF91CF91E2
:1006E000089588819981009711F00E94590B198211
:1006F00018821D821C821B821A82EFCFFC0111829C
:1007000010821382128215821482FB010190002054
:10071000E9F73197AF01461B570B0C942803EF9272
:10072000FF920F931F93CF93DF9300D0CDB7DEB727
:100730008C0163E971E00E947E030E94770197FDBE
:1007400021C08A309105F1F089831A82F801E48092
:10075000F580FFEFEF1AFF0AB701C8010E940003FE
:10076000882359F3F8012081318184819581BE016C
:100770006F5F7F4F820F931F0E94B10CF801F582CB
:10078000E482DBCFC8010F900F90DF91CF911F91D2
:100790000F91FF90EF9008951F920F920FB60F9256
:1007A00011242F933F938F939F93AF93BF93809187
:1007B000330390913403A0913503B0913603309107
:1007C000320323E0230F2D3758F50196A11DB11DEB
:1007D000209332038093330390933403A093350323
:1007E000B093360380912E0390912F03A091300394
:1007F000B09131030196A11DB11D80932E039093FA
:100800002F03A0933003B0933103BF91AF919F9119
:100810008F913F912F910F900FBE0F901F901895C1
:1008200026E8230F0296A11DB11DD2CF1F920F9271
:100830000FB60F9211242F933F934F935F936F93B3
:100840007F938F939F93AF93BF93EF93FF93E09129
:100850000201F09103010995FF91EF91BF91AF91D2
:100860009F918F917F916F915F914F913F912F91C8
:100870000F900FBE0F901F9018951F920F920FB6FA
:100880000F9211242F933F934F935F936F937F9316
:100890008F939F93AF93BF93EF93FF93E0910001EA
:1008A000F09101010995FF91EF91BF91AF919F9157
:1008B0008F917F916F915F914F913F912F910F9009
:1008C0000FBE0F901F9018951F920F920FB60F92A8
:1008D00011242F933F934F935F936F937F938F9345
:1008E0009F93AF93BF93EF93FF9387E393E00E94AF
:1008F000E501FF91EF91BF91AF919F918F917F9112
:100900006F915F914F913F912F910F900FBE0F907C
:100910001F9018951F920F920FB60F9211242F93CC
:100920008F939F93EF93FF93E0914703F0914803D8
:100930008081E0914D03F0914E0382FD1BC09081B8
:10094000809150038F5F8F7320915103821741F084
:10095000E0915003F0E0E95CFC4F958F80935003E9
:10096000FF91EF919F918F912F910F900FBE0F905C
:100970001F9018958081F4CF1F920F920FB60F929F
:1009800011242F933F934F935F936F937F938F9394
:100990009F93AF93BF93EF93FF93E0912803F09160
:1009A00029030995FF91EF91BF91AF919F918F918D
:1009B0007F916F915F914F913F912F910F900FBE5B
:1009C0000F901F901895E7E3F3E01382128288EEF0
:1009D00093E0A0E0B0E084839583A683B7838FE0A3
:1009E00091E09183808385EC90E09587848784EC07
:1009F00090E09787868780EC90E0918B808B81ECEC
:100A000090E0938B828B82EC90E0958B848B86ECCC
:100A100090E0978B868B118E128E138E148E10920F
:100A20000A05E4EDF3E0118210821382128260E283
:100A300071E088ED93E00E947E0363E971E08EED42
:100A400093E00E947E0363E971E084EE93E00E94EC
:100A50007E0363E971E08AEE93E00E947E0363E91E
:100A600071E080EF93E00E947E0363E971E086EF1E
:100A700093E00E947E0363E971E08CEF93E00E94B3
:100A80007E0363E971E082E094E00E947E0363E903
:100A900071E088E094E00E947E0363E971E08EE0FB
:100AA00094E00E947E0363E971E084E194E00E9497
:100AB0007E0363E971E08AE194E00E947E0363E9CA
:100AC00071E080E294E00E947E0363E971E086E2D7
:100AD00094E00E947E0363E971E08CE294E00E945E
:100AE0007E0363E971E082E394E00E947E0363E9A0
:100AF00071E088E394E00E947E0363E971E08EE395
:100B000094E00E947E0363E971E084E494E00E9433
:100B10007E0363E971E08AE494E00E947E0363E966
:100B200071E080E594E00E947E0363E971E086E570
:100B300094E00E947E0363E971E08CE594E00E94FA
:100B40007E0363E971E082E694E00E947E0363E93C
:100B500071E088E694E00E947E0363E971E08EE62E
:100B600094E00E947E0363E971E084E794E00E94D0
:100B70007E0363E971E08AE794E00E947E0363E903
:100B800071E080E894E00E947E0363E971E086E80A
:100B900094E00E947E0363E971E08CE894E00E9497
:100BA0007E0363E971E082E994E00E947E0363E9D9
:100BB00071E088E994E00E947E0363E971E08EE9C8
:100BC00094E00E947E0363E971E084EA94E00E946D
:100BD0007E0363E971E08AEA94E00E947E0363E9A0
:100BE00071E080EB94E00E947E0363E971E086EBA4
:100BF00094E00E947E0363E971E08CEB94E00E9434
:100C00007E0363E971E082EC94E00E947E0363E975
:100C100071E088EC94E00E947E0363E971E08EEC61
:100C200094E00E947E0363E971E084ED94E00E9409
:100C30007E0363E971E08AED94E00E947E0363E93C
:100C400071E080EE94E00E947E0363E971E086EE3D
:100C500094E00E947E0363E971E08CEE94E00E94D0
:100C60007E0363E971E082EF94E00E947E0363E912
:100C700071E088EF94E00E947E0363E971E08EEFFB
:100C800094E00E947E0363E971E084E095E00C94B7
:100C90007E03CF93DF93CDB7DEB76E970FB6F89490
:100CA000DEBF0FBECDBF789484B5826084BD84B5AD
:100CB000816084BD85B5826085BD85B5816085BD57
:100CC00080916E00816080936E001092810080910F
:100CD0008100826080938100809181008160809397
:100CE0008100809180008160809380008091B100BC
:100CF00084608093B1008091B00081608093B000E7
:100D000080917A00846080937A0080917A0082607A
:100D100080937A0080917A00816080937A0080913C
:100D20007A00806880937A001092C100E0914703B6
:100D3000F091480382E08083E0914303F091440303
:100D40001082E0914503F09146038FEC808310926E
:100D50004F03E0914B03F0914C0386E08083E091D8
:100D60004903F0914A03808180618083E0914903C7
:100D7000F0914A03808188608083E0914903F0917B
:100D80004A03808180688083E0914903F0914A039F
:100D900080818F7D808361E087E00E94D40061E0E4
:100DA00088E00E94D40062E082E00E94D40085E0E6
:100DB00091E09093010180930001809169008C7F04
:100DC00080936900E89A62E083E00E94D40089E0A1
:100DD00091E0909303018093020180916900837FE9
:100DE00080936900E99A90E19093810010928000CD
:100DF00085E080932B0326E938E930938700209320
:100E0000860085E1809381002DE031E03093290355
:100E10002093280381E080936F009093810080935A
:100E2000040140E1742E50E0A52E50E0B52E06E0FE
:100E300080910401882309F445C03EE0E32EF12CA3
:100E40008DE191E00E94740281E0E81AF108C1F797
:100E500080910A0581111BC085E291E00E94810208
:100E600085E391E00E94810287E491E00E94810283
:100E700089E591E00E9481028CE691E00E94810266
:100E80008EE791E00E94810281E080930A0587E36A
:100E900093E00E94C501892BD1F387E393E00E9480
:100EA000C5011FE6181619062CF487E393E00E948B
:100EB0006301182F10920A0580E991E00E947402E4
:100EC00010932D0310920401109104011111A7C277
:100ED00080912D03833309F4B1C16CF4813309F49B
:100EE0007EC0823309F484C187E393E00E945402F8
:100EF00087EF92E078C2843309F4E7C18533A1F724
:100F000087E393E00E94540263E971E0CE014396C7
:100F10000E947E038FE492E00E94810287E393E0C7
:100F20000E94C501181619067CF4CE0101960E9494
:100F30008F03BE016F5F7F4FCE0143960E94BF02B9
:100F4000CE0101960E94F80287E393E00E945402CA
:100F50008090D4039090D503F12CE12CD12CC12C9E
:100F60008C149D040CF447C2BE016D5E7F4FC70117
:100F70008A5A9B4F0E948F0297012A5F3F4F882316
:100F800009F434C2B701665E7B4F2091D6033091DD
:100F9000D703029FC001039F900D11248E569B4FD3
:100FA0000E945D032091D6033091D703029FC001B8
:100FB000039F900D11246EE871E082539B4F0E94B5
:100FC00053038091D6039091D70301968A309105FF
:100FD00024F49093D7038093D60311E010C287E3E3
:100FE00093E00E94540263E971E0CE0149960E94A9
:100FF0007E0384E991E00E94810287E393E00E94EE
:10100000C5011816190614F587E393E00E946301E1
:101010001C8A1B8A1E8A1D8A188E1F8A4AE0BE01FE
:101020006F5F7F4F0E944B0ABE016F5F7F4FCE0103
:1010300043960E945303BE016D5E7F4FCE014996D9
:101040000E94BF02CE0143960E94F8028D8D9E8DB4
:10105000892B81F4809179008823B1F080916E0012
:10106000882309F4BDC087E393E00E9454028AEF0D
:1010700091E0A7C0E98CFA8C69E770E0C7010E9493
:10108000A80C892B09F0A4C087E393E00E945402C6
:1010900083EB91E00E94810287E393E00E94C50107
:1010A000181619067CF4CE0101960E948F03BE012A
:1010B0006F5F7F4FCE0149960E94BF02CE0101961D
:1010C0000E94F80268ED73E0CE0149960E948F02FB
:1010D000882309F470C087E393E00E94540211E072
:1010E00089E092E00E94810287E393E00E94C501BB
:1010F000181619067CF4CE0101960E948F03BE01DA
:101100006F5F7F4FCE0149960E94BF02CE010196CC
:101110000E94F8022091D4033091D503029FC001B0
:10112000039F900D1124BE01675E7F4F865E9B4F2B
:101130000E945D0387E393E00E9454028AE292E0FA
:101140000E94810287E393E00E94C50118161906E8
:101150007CF4CE0101960E948F03BE016F5F7F4F2A
:10116000CE0149960E94BF02CE0101960E94F8026C
:1011700087E393E00E9454022091D4033091D50379
:10118000029FC001039F900D1124BE01675E7F4F37
:10119000112359F182529C4F0E945D038091D40328
:1011A0009091D50301968A3091056CF49093D50304
:1011B0008093D40308C087E393E00E94540280ED3B
:1011C00091E00E948102CE0149960E94F8027CCEF5
:1011D0006EE670E0C7010E94A80C892B09F043CF8E
:1011E00087E393E00E9454027BCF8A5A9B4FD4CF6F
:1011F00087E393E00E9454022AE1E22E24E0F22EDB
:10120000D12CC12C8091D4039091D5038C159D05D0
:101210000CF45ACEF701448155816081718187E3D6
:1012200093E00E9427018DE191E00E947402FFEF9C
:10123000CF1ADF0A86E0E80EF11CE4CF87E393E0E3
:101240000E94540292E9E92E94E0F92ED12CC12C8F
:101250008091D6039091D7038C159D05A4F0F701DA
:10126000448155816081718187E393E00E94270169
:101270008DE191E00E947402FFEFCF1ADF0A86E051
:10128000E80EF11CE5CF8EECE82E84E0F82ED12C90
:10129000C12C8091D6039091D7038C159D050CF439
:1012A00013CEF701448155816081718187E393E01A
:1012B0000E9427018DE191E00E947402FFEFCF1A96
:1012C000DF0A86E0E80EF11CE4CF87E393E00E949A
:1012D000540263E971E0CE0143960E947E038FE4DD
:1012E00092E00E94810287E393E00E94C5011816F4
:1012F00019067CF4CE0101960E948F03BE016F5F38
:101300007F4FCE0143960E94BF02CE0101960E94FC
:10131000F80287E393E00E9454028090D4039090F7
:10132000D503F12CE12CD12CC12C8C149D040CF490
:101330003FC0BE016D5E7F4FC7018A5A9B4F0E941E
:101340008F0297012A5F3F4F882369F1B701665EDC
:101350007B4F2091D6033091D703029FC001039F9A
:10136000900D11248E569B4F0E945D032091D60351
:101370003091D703029FC001039F900D11246CE7A9
:1013800071E082539B4F0E9453038091D60390914A
:10139000D70301968A30910524F49093D703809364
:1013A000D60311E009C0EFEFCE1ADE0A7901BDCFF6
:1013B00081E892E00E948102CE0143960E94F802E9
:1013C000112379F081E992E00E94810261E087E0D7
:1013D0000E94880010922A0310922C0370928100C0
:1013E00073CD8BEA92E00E9481026ECDFFEFCF1A9F
:1013F000DF0A7901B5CD81E892E00E948102CE0139
:1014000043960E94F802112339F084EC92E00E9486
:10141000810261E088E0DCCF8EED92E0E4CFA114A0
:10142000B10409F405CD0E94D101882309F4FFCC51
:101430000E940000FCCCCF93DF93CAE0D5E0269752
:10144000CE010E94F80284E0C239D807C1F7C2E990
:10145000D4E02697CE010E94F80284E0C635D80772
:10146000C1F7C6E5D4E02697CE010E94F80284E0D9
:10147000CA31D807C1F7CAE1D4E02697CE010E944D
:10148000F80283E0CE3DD807C1F788ED93E0DF9105
:10149000CF910C94F802BB274A3031F4992322F4FF
:1014A000BDE2909581959F4F0C94570ABB27FB0195
:1014B0005527AA27880F991FAA1FA41710F0A41B4D
:1014C00083955051B9F7A05DAA3308F0A95DA193A7
:1014D000009779F7B111B1931192CB010C94700A76
:1014E000DC01FC01672F71917723E1F7329704C08B
:1014F0007C916D9370836291AE17BF07C8F3089516
:101500002F923F924F925F926F927F928F929F9213
:10151000AF92BF92CF92DF92EF92FF920F931F9301
:10152000CF93DF93CDB7DEB7CA1BDB0B0FB6F894B2
:10153000DEBF0FBECDBF09942A88398848885F84F2
:101540006E847D848C849B84AA84B984C884DF8063
:10155000EE80FD800C811B81AA81B981CE0FD11D47
:101560000FB6F894DEBF0FBECDBFED010895EE0FAC
:10157000FF1F0590F491E02D09940F931F93CF93D3
:10158000DF938230910510F482E090E0E0910D0548
:10159000F0910E0530E020E0B0E0A0E0309799F443
:1015A0002115310509F44AC0281B390B24303105B7
:1015B000D8F58A819B816115710589F1FB019383BF
:1015C0008283FE0111C0408151810281138148173D
:1015D0005907E0F04817590799F4109761F01296EF
:1015E0000C93129713961C933296CF01DF91CF91F3
:1015F0001F910F91089500930D0510930E05F4CFE0
:101600002115310551F04217530738F0A901DB01CC
:101610009A01BD01DF01F801C1CFEF01F9CF90932D
:101620000E0580930D05CDCFFE01E20FF31F8193D0
:1016300091932250310939832883D7CF20910B050C
:1016400030910C05232B41F42091070130910801C2
:1016500030930C0520930B05209105013091060174
:101660002115310541F42DB73EB740910901509144
:101670000A01241B350BE0910B05F0910C05E217D4
:10168000F307A0F42E1B3F0B2817390778F0AC01A5
:101690004E5F5F4F2417350748F04E0F5F1F509382
:1016A0000C0540930B05819391939FCFF0E0E0E010
:1016B0009CCFCF93DF930097E9F0FC013297138220
:1016C0001282A0910D05B0910E05ED0130E020E0F1
:1016D0001097A1F420813181820F931F20910B0577
:1016E00030910C052817390709F061C0F0930C05FB
:1016F000E0930B05DF91CF910895EA01CE17DF0744
:10170000E8F54A815B819E0141155105B1F7E90178
:10171000FB83EA8349915991C40FD51FEC17FD074C
:1017200061F4808191810296840F951FE90199836C
:101730008883828193819B838A83F0E0E0E0129624
:101740008D919C9113970097B9F52D913C9111972C
:10175000CD010296820F931F20910B0530910C054D
:101760002817390739F6309751F510920E05109267
:101770000D05B0930C05A0930B05BCCFD383C2839A
:1017800040815181840F951FC817D90761F44E5FBE
:101790005F4F88819981480F591F518340838A8107
:1017A0009B81938382832115310509F0B0CFF0939B
:1017B0000E05E0930D059ECFFD01DC01C0CF138225
:1017C0001282D7CFB0E0A0E0E8EEFBE00C94820AF2
:1017D0008C01009751F4CB010E94BD0A8C01C80115
:1017E000CDB7DEB7E0E10C949E0AFC01E60FF71FCF
:1017F0009C0122503109E217F30708F49DC0D9017A
:10180000CD91DC911197C617D70798F0C530D10557
:1018100030F3CE0104978617970708F3C61BD70B42
:101820002297C193D1936D937C93CF010E94590B62
:10183000D6CF5B01AC1ABD0A4C018C0E9D1EA09147
:101840000D05B0910E05512C412CF12CE12C109777
:1018500031F580910B0590910C058815990509F0DB
:101860005CC04616570608F058C08091050190915B
:101870000601009741F48DB79EB740910901509140
:101880000A01841B950BE817F90708F055C0F0937F
:101890000C05E0930B05F90171836083A0CF8D9156
:1018A0009C91119712966C90129713967C901397B7
:1018B000A815B90559F56C0142E0C40ED11CCA1433
:1018C000DB0420F1AC014A195B09DA011296159785
:1018D00080F06282738251834083D9016D937C933F
:1018E000E114F10471F0D7011396FC93EE93129773
:1018F00076CF22968C0F9D1FF90191838083F3018F
:10190000EFCFF0930E05E0930D0569CF4816590609
:1019100008F42C017D01D3019ACFCB010E94BD0AAE
:101920007C01009749F0AE01B8010E949F0CC801EC
:101930000E94590B870153CF10E000E050CFFB010C
:10194000DC0102C001900D9241505040D8F708953B
:10195000FB01DC018D91019080190110D9F3990BE5
:101960000895FB01DC0101900D920020E1F708953C
:1019700010E0CDE5D0E004C0FE010E94B70A219638
:10198000CE35D107C9F7F894FFCF26012601010013
:10199000000F0580000000000007022701540154D9
:1019A00002C5016301B7010D0A0030303030004D2F
:1019B000656E752053656C656374696F6E3A0031AE
:1019C000202D2052656769737465722055736572A6
:1019D0000032202D204C697374206F66205573658A
:1019E00072730033202D204C697374206F6620457C
:1019F00076656E74730034202D20416363657373C4
:101A000020446F6F7220310035202D2041636365C3
:101A1000737320446F6F722032000A0A0A00417209
:101A20006520796F7520616E2061646D696E207527
:101A30007365723F2079206F72206E0A00547970AE
:101A40006520696E207468652061646D696E207020
:101A5000617373776F72643A0A00496E636F7272D2
:101A60006563742070617373776F72642E205265A2
:101A700067697374726174696F6E2064656E6965FD
:101A8000642E0A00496C6567616C20616E7377652E
:101A9000720A00506C656173652C20656E74657206
:101AA00020746865206E657720757365726E616D50
:101AB000653A0A00506C656173652C20656E74652B
:101AC00072207468652034206469676974207061CD
:101AD0007373776F72643A0A00506C656173652C9A
:101AE00020656E74657220796F757220637265640B
:101AF000656E6369616C7320342064696769742062
:101B000070617373776F72643A0A0041636365733F
:101B1000732064656E6965642E0A004163636573B2
:101B20007320746F20646F6F722031206772616E52
:101B3000746564210041636365737320746F20646E
:101B40006F6F7220312064656E69656421004163A6
:101B50006365737320746F20646F6F722032206727
:101B600072616E74656421004163636573732074F0
:101B70006F20646F6F7220322064656E6965642126
:101B800000546865206F7074696F6E2073656C65B2
:101B90006374656420646F6573206E6F742065786C
:101BA000697374732E2054727920616761696E2E97
:021BB000000033
:107E0000112484B714BE81FFF0D085E080938100F7
:107E100082E08093C00088E18093C10086E0809377
:107E2000C20080E18093C4008EE0C9D0259A86E02C
:107E300020E33CEF91E0309385002093840096BBD3
:107E4000B09BFECF1D9AA8958150A9F7CC24DD24C4
:107E500088248394B5E0AB2EA1E19A2EF3E0BF2EE7
:107E6000A2D0813461F49FD0082FAFD0023811F036
:107E7000013811F484E001C083E08DD089C08234E0
:107E800011F484E103C0853419F485E0A6D080C0E4
:107E9000853579F488D0E82EFF2485D0082F10E0AE
:107EA000102F00270E291F29000F111F8ED06801E7
:107EB0006FC0863521F484E090D080E0DECF843638
:107EC00009F040C070D06FD0082F6DD080E0C81688
:107ED00080E7D80618F4F601B7BEE895C0E0D1E017
:107EE00062D089930C17E1F7F0E0CF16F0E7DF06D8
:107EF00018F0F601B7BEE89568D007B600FCFDCFD4
:107F0000A601A0E0B1E02C9130E011968C91119780
:107F100090E0982F8827822B932B1296FA010C0160
:107F200087BEE89511244E5F5F4FF1E0A038BF0790
:107F300051F7F601A7BEE89507B600FCFDCF97BE46
:107F4000E89526C08437B1F42ED02DD0F82E2BD052
:107F50003CD0F601EF2C8F010F5F1F4F84911BD097
:107F6000EA94F801C1F70894C11CD11CFA94CF0C13
:107F7000D11C0EC0853739F428D08EE10CD085E9AC
:107F80000AD08FE07ACF813511F488E018D01DD067
:107F900080E101D065CF982F8091C00085FFFCCF94
:107FA0009093C60008958091C00087FFFCCF809118
:107FB000C00084FD01C0A8958091C6000895E0E648
:107FC000F0E098E1908380830895EDDF803219F02E
:107FD00088E0F5DFFFCF84E1DECF1F93182FE3DFCA
:107FE0001150E9F7F2DF1F91089580E0E8DFEE27F6
:047FF000FF270994CA
:027FFE00040479
:00000001FF
